S01300004E54492034206D6F6E74682E737265638C
S11300000C942A000C94E0040C9409050C94320519
S11300100C9447000C9447000C94DC000C940D06DF
S11300200C9447000C9447000C945B050C948B05CE
S11300300C9447000C9447000C9447000C94470020
S11300400C945F030C9447000C9447000C944700F5
S11300500C94470011241FBECFE5D8E0DEBFCDBF0E
S113006010E0A0E6B0E0ECE6FEE002C005900D92E0
S1130070A236B107D9F720E0A2E6B0E001C01D9294
S1130080A33BB207E1F70E9418030C9434070C94C5
S1130090000096B7906496BF11B890E290B991B100
S11300A09E7F91B991B19D7F91B996B79F7796BF85
S11300B0882311F0880F82B986B7846086BF0895BB
S11300C086B7806286BF86B7806886BF06B607FE9D
S11300D0FDCF81B1887F883011F480E0089581E0FC
S11300E0089586B7806286BF86B7806886BF06B6E5
S11300F007FEFDCF81B1887F803111F480E008953F
S113010082E00895880F83B983B18E7F83B986B75F
S11301108F7D86BF86B7806886BF06B607FEFDCF93
S113012081B1887F883111F480E0089583E00895D7
S113013013B8880F83B983B1816083B986B78068A7
S113014086BF06B607FEFDCF81B1887F803411F4E7
S113015080E0089584E0089583B986B7806886BFF7
S113016006B607FEFDCF81B1887F883211F480E0A6
S1130170089585E00895FC0196B7906896BF96B7F8
S1130180946096BF96B7906496BF06B607FEFDCFFF
S113019083B1808380E0089586B7806186BF86B787
S11301A0806886BF089524E826BF06B607FCFDCF05
S11301B023B1FC01208308951F920F920FB60F9272
S11301C011242F933F934F935F936F937F938F9358
S11301D09F93AF93BF93EF93FF93E0916200F091ED
S11301E06300309709F00995FF91EF91BF91AF91AA
S11301F09F918F917F916F915F914F913F912F913B
S11302000F900FBE0F901F90189590E021E030E002
S113021007C0A901849F9001859F300D11249F5F21
S11302209617B8F3C9010895CF93C82F40E063E04F
S113023080E00E94580440E061E080E00E9458049D
S1130240C4FB442740F960E081E00E945804C5FBE8
S1130250442740F961E081E00E945804C6FB44272A
S113026040F962E081E00E9458044C2F441F442767
S1130270441F64E081E00E94580441E062E080E0B1
S11302800E94580483EF91E00197F1F700C0000049
S113029040E062E080E00E94580489EF90E001971A
S11302A0F1F700C000004C2F417060E081E00E9433
S11302B05804C1FB442740F961E081E00E945804DE
S11302C0C2FB442740F962E081E00E945804C3FB6A
S11302D0442740F964E081E00E94580441E062E070
S11302E080E00E94580483EF91E00197F1F700C089
S11302F0000040E062E080E00E94580489EF90E052
S11303000197F1F700C00000CF910895CF93C82F53
S113031041E063E080E00E94580440E061E080E056
S11303200E945804C4FB442740F960E081E00E9425
S11303305804C5FB442740F961E081E00E94580459
S1130340C6FB442740F962E081E00E9458044C2F28
S1130350441F4427441F64E081E00E94580441E0A4
S113036062E080E00E94580483EF91E00197F1F786
S113037000C0000040E062E080E00E94580489EF81
S113038090E00197F1F700C000004C2F417060E04D
S113039081E00E945804C1FB442740F961E081E0F8
S11303A00E945804C2FB442740F962E081E00E94A5
S11303B05804C3FB442740F964E081E00E945804D8
S11303C041E062E080E00E94580483EF91E00197ED
S11303D0F1F700C0000040E062E080E00E945804B1
S11303E089EF90E00197F1F700C00000CF910895E4
S11303F08FE097E20197F1F700C0000082E00E94CD
S1130400140188E20E94140183EF91E00197F1F74F
S113041000C000008CE00E94140183EF91E001977A
S1130420F1F700C0000081E00E94140183EF91E025
S11304300197F1F700C0000008950F931F93CF9325
S11304408C01C0E003C00E948601CF5FF801EC0F6D
S1130450F11D80818111F7CFCF911F910F910895E4
S1130460611106C0982F20E4629F900D112401C0F1
S113047090E0613029F4982F20E4629F900D1124BC
S113048080E8890F0E941401089541E060E081E052
S11304900E94D00341E061E081E00E94D00341E08A
S11304A062E081E00E94D00341E064E081E00E94C8
S11304B0D00341E062E080E00E94D00341E061E0CB
S11304C080E00E94D00341E063E080E00E94D0031A
S11304D0089581E00E9414010895CF93DF93CDB76E
S11304E0DEB760970FB6F894DEBF0FBECDBF4AE00B
S11304F0BE016F5F7F4F0E94FF06CE0101960E94EE
S11305001D0260960FB6F894DEBF0FBECDBFDF911B
S1130510CF910895EF92FF920F931F93CF93DF93A0
S1130520EC01009789F480E30E94860129C0ADECB8
S1130530BCEC0E94F0069C013695279536952795CC
S1130540369527950F5F02C09C0100E02115310507
S113055071F710E013C0602F611B61508AE00E94A4
S11305600501BC01CE010E94DC06E82EF92E80E3D1
S1130570860F0E948601CE2DDF2D1F5F101758F3C2
S1130580DF91CF911F910F91FF90EF9008950E94FA
S1130590600088E60E94820087E00E94AC0080E050
S11305A00E9498000E94CC000895CF93DF93EC0141
S11305B00E94600088E60E94820080E00E9482001F
S11305C088810E94AC0089810E94AC008A810E94CB
S11305D0AC000E94CC00DF91CF910895CF93DF93BC
S11305E0EC010E94600088E60E94820080E00E9484
S11305F0AC000E94710088E60E949800CE010E941F
S1130600BB00CE0101960E94BB00CE0102960E945F
S1130610D30080E090E00E94D30089EF90E001973E
S1130620F1F700C000000E94CC00DF91CF91089543
S11306300E9445020E94F80180E00E9449000E9445
S1130640C702E7E6F0E083E3808382E2818385E109
S11306508283CF010E94D5022FE38DE093E02150E5
S113066080409040E1F700C0000084E690E00E94E2
S1130670EE0260E080E00E943002C4E6D0E08881AF
S113068090E00E946D0260E084E00E943002898163
S113069090E00E946D0260E088E00E9430028A814E
S11306A090E00E948A022FE986E891E02150804080
S11306B09040E1F700C000000E946902D6CF1F926B
S11306C00F920FB60F9211242F933F934F935F9382
S11306D06F937F938F939F93AF93BF93EF93FF9306
S11306E08091B200811115C0E0917100F091720007
S11306F085B190E0918380831092700086B1877FEA
S113070086B9E0916E00F0916F003097C1F10995C0
S113071036C080916B00E82FF0E0EE0FFF1F2091B0
S1130720710030917200E20FF31F24B135B13183AF
S113073020838F5F80936B0090916A0089130DC0B2
S11307401092700086B1877F86B9E0916E00F091B7
S11307506F003097A1F0099512C087B1807E87B9E8
S113076097B180916B00E0916C00F0916D00E80FFF
S1130770F11D8081892B87B986B1806486B9FF9188
S1130780EF91BF91AF919F918F917F916F915F9105
S11307904F913F912F910F900FBE0F901F9018957E
S11307A0843008F07BC0683008F07AC04130C1F56D
S11307B0813091F028F08230D9F0833029F172C071
S11307C02AB381E090E002C0880F991F6A95E2F78E
S11307D0822B8ABB81E0089527B381E090E002C0B8
S11307E0880F991F6A95E2F7822B87BB81E00895F1
S11307F024B381E090E002C0880F991F6A95E2F764
S1130800822B84BB81E0089521B381E090E002C093
S1130810880F991F6A95E2F7822B81BB81E00895C6
S1130820411142C0813099F028F08230E9F08330E0
S113083041F13CC02AB381E090E002C0880F991FC7
S11308406A95E2F7809582238ABB81E0089527B3F5
S113085081E090E002C0880F991F6A95E2F78095C5
S1130860822387BB81E0089524B381E090E002C035
S1130870880F991F6A95E2F78095822384BB81E0F3
S1130880089521B381E090E002C0880F991F6A9512
S1130890E2F78095822381BB81E0089580E008958A
S11308A080E0089581E0089581E0089581E008954D
S11308B0843008F07BC0683008F07AC04130C1F55C
S11308C0813091F028F08230D9F0833029F172C060
S11308D02BB381E090E002C0880F991F6A95E2F77C
S11308E0822B8BBB81E0089528B381E090E002C0A5
S11308F0880F991F6A95E2F7822B88BB81E00895DF
S113090025B381E090E002C0880F991F6A95E2F751
S1130910822B85BB81E0089522B381E090E002C080
S1130920880F991F6A95E2F7822B82BB81E00895B4
S1130930411142C0813099F028F08230E9F08330CF
S113094041F13CC02BB381E090E002C0880F991FB5
S11309506A95E2F7809582238BBB81E0089528B3E2
S113096081E090E002C0880F991F6A95E2F78095B4
S1130970822388BB81E0089525B381E090E002C022
S1130980880F991F6A95E2F78095822385BB81E0E1
S1130990089522B381E090E002C0880F991F6A9500
S11309A0E2F78095822382BB81E0089580E0089578
S11309B080E0089581E0089581E0089581E008953C
S11309C01F920F920FB60F9211242F933F934F93C0
S11309D05F936F937F938F939F93AF93BF93EF93A3
S11309E0FF93E0917300F0917400309709F009953A
S11309F0FF91EF91BF91AF919F918F917F916F91F3
S1130A005F914F913F912F910F900FBE0F901F90C8
S1130A1018951F920F920FB60F9211242F933F93A4
S1130A204F935F936F937F938F939F93AF93BF93F2
S1130A30EF93FF93E0917500F0917600309709F001
S1130A400995FF91EF91BF91AF919F918F917F9104
S1130A506F915F914F913F912F910F900FBE0F9027
S1130A601F9018951F920F920FB60F9211242F9377
S1130A703F934F935F936F937F938F939F93AF9322
S1130A80BF93EF93FF93E0917700F0917800309754
S1130A9009F00995FF91EF91BF91AF919F918F91CB
S1130AA07F916F915F914F913F912F910F900FBE66
S1130AB00F901F9018951F920F920FB60F9211244A
S1130AC02F933F934F935F936F937F938F939F9352
S1130AD0AF93BF93EF93FF938091790090917A0045
S1130AE0892B41F088B7826088BFE0917900F0914A
S1130AF07A000995FF91EF91BF91AF919F918F91EA
S1130B007F916F915F914F913F912F910F900FBE05
S1130B100F901F9018951F920F920FB60F921124E9
S1130B208F939F93AF93BF938091800090918100A6
S1130B3001979093810080938000892BF1F4809138
S1130B407F0082BF80917B0090917C00A0917D000A
S1130B50B0917E000196A11DB11D80937B009093FE
S1130B607C00A0937D00B0937E00809182009091E0
S1130B7083009093810080938000BF91AF919F91F7
S1130B808F910F900FBE0F901F901895CF93DF9306
S1130B909C01FB01DC011196CD91DC911297D3836A
S1130BA0C2838C819D81958384838C819D81DC01AA
S1130BB013967C936E9312977D836C833187208781
S1130BC0F90180818F5F8083DF91CF910895CF9366
S1130BD0DF93FC01A085B185C281D3818481958195
S1130BE09D838C83C481D581828193819B838A83F5
S1130BF011968D919C911297E817F90731F484812D
S1130C00958112969C938E931197118610868C91E0
S1130C1081508C93DF91CF9108951F920F920FB65C
S1130C200F9211242F933F934F935F936F937F936E
S1130C308F939F93AF93BF93EF93FF930E945006BC
S1130C40FF91EF91BF91AF919F918F917F916F91A0
S1130C505F914F913F912F910F900FBE0F901F9076
S1130C601895E0918C00F0918D008081811107C06E
S1130C708FEF9FEF90936100809360000895E0915F
S1130C808C00F0918D000580F681E02D0680F781BF
S1130C90E02D828193819093610080936000089598
S1130CA0EF92FF920F931F93CF93DF938091840071
S1130CB0811175C08091880090918900019690936C
S1130CC0890080938800E0908800F0908900E11406
S1130CD0F104B9F480918C0090918D0020918A00E8
S1130CE030918B0030938D0020938C0090938B0077
S1130CF080938A00809185008F5F809385000E9495
S1130D0031068091600090916100E816F90608F4BC
S1130D104BC0E0918C00F0918D008081811107C05F
S1130D208FEF9FEF90936100809360003DC0E0914E
S1130D308C00F0918D000580F681E02DC681D7816D
S1130D408A819B81E816F90628F4909361008093C8
S1130D5060002AC08E010E5F1F4FC8010E94E70584
S1130D608C899D89892B21F0CE010C960E94E70580
S1130D708E8990918700981710F48093870090E0F3
S1130D809C01220F331F220F331F220F331F820FA8
S1130D90931FB80182579F4F0E94C605BACF809116
S1130DA086008F5F8093860080E0DF91CF911F9152
S1130DB00F91FF90EF900895AA1BBB1B51E107C050
S1130DC0AA1FBB1FA617B70710F0A61BB70B881FD7
S1130DD0991F5A95A9F780959095BC01CD01089566
S1130DE0A29FB001B39FC001A39F700D811D112468
S1130DF0911DB29F700D811D1124911D0895BB2773
S1130E004A3031F4992322F4BDE2909581959F4FA5
S1130E100C940B07BB27FB015527AA27880F991FA2
S1130E20AA1FA41710F0A41B83955051B9F7A05D15
S1130E30AA3308F0A95DA193009779F7B111B19392
S1130E401192CB010C942407DC01FC01672F7191F2
S1130E507723E1F7329704C07C916D93708362919C
S10F0E60AE17BF07C8F30895F894FFCF45
S1050E6CFFFF82
S9030000FC
